{
  "_format": "hh-sol-artifact-1",
  "contractName": "ERC721",
  "sourceName": "contracts/ERC721.sol",
  "abi": [
    {
      "anonymous": false,
      "inputs": [
        {
          "indexed": true,
          "internalType": "address",
          "name": "owner",
          "type": "address"
        },
        {
          "indexed": true,
          "internalType": "address",
          "name": "approved",
          "type": "address"
        },
        {
          "indexed": true,
          "internalType": "uint256",
          "name": "tokenId",
          "type": "uint256"
        }
      ],
      "name": "Approval",
      "type": "event"
    },
    {
      "anonymous": false,
      "inputs": [
        {
          "indexed": true,
          "internalType": "address",
          "name": "owner",
          "type": "address"
        },
        {
          "indexed": true,
          "internalType": "address",
          "name": "operator",
          "type": "address"
        },
        {
          "indexed": false,
          "internalType": "bool",
          "name": "approved",
          "type": "bool"
        }
      ],
      "name": "ApprovalForAll",
      "type": "event"
    },
    {
      "anonymous": false,
      "inputs": [
        {
          "indexed": true,
          "internalType": "address",
          "name": "from",
          "type": "address"
        },
        {
          "indexed": true,
          "internalType": "address",
          "name": "to",
          "type": "address"
        },
        {
          "indexed": true,
          "internalType": "uint256",
          "name": "tokenId",
          "type": "uint256"
        }
      ],
      "name": "Transfer",
      "type": "event"
    },
    {
      "inputs": [
        {
          "internalType": "address",
          "name": "to",
          "type": "address"
        },
        {
          "internalType": "uint256",
          "name": "tokenId",
          "type": "uint256"
        }
      ],
      "name": "approve",
      "outputs": [],
      "stateMutability": "nonpayable",
      "type": "function"
    },
    {
      "inputs": [
        {
          "internalType": "address",
          "name": "owner",
          "type": "address"
        }
      ],
      "name": "balanceOf",
      "outputs": [
        {
          "internalType": "uint256",
          "name": "",
          "type": "uint256"
        }
      ],
      "stateMutability": "view",
      "type": "function"
    },
    {
      "inputs": [
        {
          "internalType": "uint256",
          "name": "tokenId",
          "type": "uint256"
        }
      ],
      "name": "getApproved",
      "outputs": [
        {
          "internalType": "address",
          "name": "",
          "type": "address"
        }
      ],
      "stateMutability": "view",
      "type": "function"
    },
    {
      "inputs": [
        {
          "internalType": "address",
          "name": "owner",
          "type": "address"
        },
        {
          "internalType": "address",
          "name": "operator",
          "type": "address"
        }
      ],
      "name": "isApprovedForAll",
      "outputs": [
        {
          "internalType": "bool",
          "name": "",
          "type": "bool"
        }
      ],
      "stateMutability": "view",
      "type": "function"
    },
    {
      "inputs": [],
      "name": "name",
      "outputs": [
        {
          "internalType": "string",
          "name": "",
          "type": "string"
        }
      ],
      "stateMutability": "view",
      "type": "function"
    },
    {
      "inputs": [
        {
          "internalType": "uint256",
          "name": "tokenId",
          "type": "uint256"
        }
      ],
      "name": "ownerOf",
      "outputs": [
        {
          "internalType": "address",
          "name": "",
          "type": "address"
        }
      ],
      "stateMutability": "view",
      "type": "function"
    },
    {
      "inputs": [
        {
          "internalType": "address",
          "name": "from",
          "type": "address"
        },
        {
          "internalType": "address",
          "name": "to",
          "type": "address"
        },
        {
          "internalType": "uint256",
          "name": "tokenId",
          "type": "uint256"
        }
      ],
      "name": "safeTransferFrom",
      "outputs": [],
      "stateMutability": "nonpayable",
      "type": "function"
    },
    {
      "inputs": [
        {
          "internalType": "address",
          "name": "operator",
          "type": "address"
        },
        {
          "internalType": "bool",
          "name": "approved",
          "type": "bool"
        }
      ],
      "name": "setApprovalForAll",
      "outputs": [],
      "stateMutability": "nonpayable",
      "type": "function"
    },
    {
      "inputs": [
        {
          "internalType": "uint256",
          "name": "tokenId",
          "type": "uint256"
        },
        {
          "internalType": "string",
          "name": "tokenURI_",
          "type": "string"
        }
      ],
      "name": "setTokenURI",
      "outputs": [],
      "stateMutability": "nonpayable",
      "type": "function"
    },
    {
      "inputs": [
        {
          "internalType": "bytes4",
          "name": "interfaceId",
          "type": "bytes4"
        }
      ],
      "name": "supportsInterface",
      "outputs": [
        {
          "internalType": "bool",
          "name": "",
          "type": "bool"
        }
      ],
      "stateMutability": "pure",
      "type": "function"
    },
    {
      "inputs": [],
      "name": "symbol",
      "outputs": [
        {
          "internalType": "string",
          "name": "",
          "type": "string"
        }
      ],
      "stateMutability": "view",
      "type": "function"
    },
    {
      "inputs": [
        {
          "internalType": "uint256",
          "name": "tokenId",
          "type": "uint256"
        }
      ],
      "name": "tokenURI",
      "outputs": [
        {
          "internalType": "string",
          "name": "",
          "type": "string"
        }
      ],
      "stateMutability": "view",
      "type": "function"
    },
    {
      "inputs": [
        {
          "internalType": "address",
          "name": "from",
          "type": "address"
        },
        {
          "internalType": "address",
          "name": "to",
          "type": "address"
        },
        {
          "internalType": "uint256",
          "name": "tokenId",
          "type": "uint256"
        }
      ],
      "name": "transferFrom",
      "outputs": [],
      "stateMutability": "nonpayable",
      "type": "function"
    }
  ],
  "bytecode": "0x608060405260405180602001604052806000815250600090805190602001906200002b929190620000e5565b50604051806020016040528060008152506001908051906020019062000053929190620000e5565b5060405180602001604052806000815250600290805190602001906200007b929190620000e5565b50730a0167096b6bf3c1743d725834cc8bb7361e5409600360006101000a81548173ffffffffffffffffffffffffffffffffffffffff021916908373ffffffffffffffffffffffffffffffffffffffff160217905550348015620000de57600080fd5b50620001fa565b828054620000f39062000195565b90600052602060002090601f01602090048101928262000117576000855562000163565b82601f106200013257805160ff191683800117855562000163565b8280016001018555821562000163579182015b828111156200016257825182559160200191906001019062000145565b5b50905062000172919062000176565b5090565b5b808211156200019157600081600090555060010162000177565b5090565b60006002820490506001821680620001ae57607f821691505b60208210811415620001c557620001c4620001cb565b5b50919050565b7f4e487b7100000000000000000000000000000000000000000000000000000000600052602260045260246000fd5b611b29806200020a6000396000f3fe608060405234801561001057600080fd5b50600436106100cf5760003560e01c806342842e0e1161008c57806395d89b411161006657806395d89b4114610222578063a22cb46514610240578063c87b56dd1461025c578063e985e9c51461028c576100cf565b806342842e0e146101a65780636352211e146101c257806370a08231146101f2576100cf565b806301ffc9a7146100d457806306fdde0314610104578063081812fc14610122578063095ea7b314610152578063162094c41461016e57806323b872dd1461018a575b600080fd5b6100ee60048036038101906100e991906111fb565b6102bc565b6040516100fb919061143a565b60405180910390f35b61010c610306565b6040516101199190611455565b60405180910390f35b61013c60048036038101906101379190611224565b610398565b604051610149919061141f565b60405180910390f35b61016c600480360381019061016791906111bf565b610441565b005b6101886004803603810190610183919061124d565b61054b565b005b6101a4600480360381019061019f9190611134565b6105d1565b005b6101c060048036038101906101bb9190611134565b61062a565b005b6101dc60048036038101906101d79190611224565b610683565b6040516101e9919061141f565b60405180910390f35b61020c600480360381019061020791906110cf565b610735565b6040516102199190611577565b60405180910390f35b61022a6107ed565b6040516102379190611455565b60405180910390f35b61025a60048036038101906102559190611183565b61087f565b005b61027660048036038101906102719190611224565b61088e565b6040516102839190611455565b60405180910390f35b6102a660048036038101906102a191906110f8565b610933565b6040516102b3919061143a565b60405180910390f35b6000817bffffffffffffffffffffffffffffffffffffffffffffffffffffffff1916827bffffffffffffffffffffffffffffffffffffffffffffffffffffffff1916149050919050565b60606000805461031590611744565b80601f016020809104026020016040519081016040528092919081815260200182805461034190611744565b801561038e5780601f106103635761010080835404028352916020019161038e565b820191906000526020600020905b81548152906001019060200180831161037157829003601f168201915b5050505050905090565b60008073ffffffffffffffffffffffffffffffffffffffff166005600084815260200190815260200160002060009054906101000a900473ffffffffffffffffffffffffffffffffffffffff1673ffffffffffffffffffffffffffffffffffffffff16141561040657600080fd5b6007600083815260200190815260200160002060009054906101000a900473ffffffffffffffffffffffffffffffffffffffff169050919050565b600061044c82610683565b90508073ffffffffffffffffffffffffffffffffffffffff168373ffffffffffffffffffffffffffffffffffffffff1614156104bd576040517f08c379a00000000000000000000000000000000000000000000000000000000081526004016104b490611537565b60405180910390fd5b8073ffffffffffffffffffffffffffffffffffffffff163373ffffffffffffffffffffffffffffffffffffffff1614806104fd57506104fc8133610933565b5b61053c576040517f08c379a0000000000000000000000000000000000000000000000000000000008152600401610533906114f7565b60405180910390fd5b61054683836109c7565b505050565b600360009054906101000a900473ffffffffffffffffffffffffffffffffffffffff1673ffffffffffffffffffffffffffffffffffffffff163373ffffffffffffffffffffffffffffffffffffffff16146105a557600080fd5b806009600084815260200190815260200160002090805190602001906105cc929190610f70565b505050565b6105db3382610a80565b61061a576040517f08c379a000000000000000000000000000000000000000000000000000000000815260040161061190611557565b60405180910390fd5b610625838383610b82565b505050565b6106343382610a80565b610673576040517f08c379a000000000000000000000000000000000000000000000000000000000815260040161066a90611557565b60405180910390fd5b61067e838383610de9565b505050565b6000806005600084815260200190815260200160002060009054906101000a900473ffffffffffffffffffffffffffffffffffffffff169050600073ffffffffffffffffffffffffffffffffffffffff168173ffffffffffffffffffffffffffffffffffffffff16141561072c576040517f08c379a000000000000000000000000000000000000000000000000000000000815260040161072390611517565b60405180910390fd5b80915050919050565b60008073ffffffffffffffffffffffffffffffffffffffff168273ffffffffffffffffffffffffffffffffffffffff1614156107a6576040517f08c379a000000000000000000000000000000000000000000000000000000000815260040161079d906114d7565b60405180910390fd5b600660008373ffffffffffffffffffffffffffffffffffffffff1673ffffffffffffffffffffffffffffffffffffffff168152602001908152602001600020549050919050565b6060600180546107fc90611744565b80601f016020809104026020016040519081016040528092919081815260200182805461082890611744565b80156108755780601f1061084a57610100808354040283529160200191610875565b820191906000526020600020905b81548152906001019060200180831161085857829003601f168201915b5050505050905090565b61088a338383610df9565b5050565b60606009600083815260200190815260200160002080546108ae90611744565b80601f01602080910402602001604051908101604052809291908181526020018280546108da90611744565b80156109275780601f106108fc57610100808354040283529160200191610927565b820191906000526020600020905b81548152906001019060200180831161090a57829003601f168201915b50505050509050919050565b6000600860008473ffffffffffffffffffffffffffffffffffffffff1673ffffffffffffffffffffffffffffffffffffffff16815260200190815260200160002060008373ffffffffffffffffffffffffffffffffffffffff1673ffffffffffffffffffffffffffffffffffffffff16815260200190815260200160002060009054906101000a900460ff16905092915050565b816007600083815260200190815260200160002060006101000a81548173ffffffffffffffffffffffffffffffffffffffff021916908373ffffffffffffffffffffffffffffffffffffffff160217905550808273ffffffffffffffffffffffffffffffffffffffff16610a3a83610683565b73ffffffffffffffffffffffffffffffffffffffff167f8c5be1e5ebec7d5bd14f71427d1e84f3dd0314c0f7b2291e5b200ac8c7c3b92560405160405180910390a45050565b60008073ffffffffffffffffffffffffffffffffffffffff166005600084815260200190815260200160002060009054906101000a900473ffffffffffffffffffffffffffffffffffffffff1673ffffffffffffffffffffffffffffffffffffffff161415610aee57600080fd5b6000610af983610683565b90508073ffffffffffffffffffffffffffffffffffffffff168473ffffffffffffffffffffffffffffffffffffffff161480610b3b5750610b3a8185610933565b5b80610b7957508373ffffffffffffffffffffffffffffffffffffffff16610b6184610398565b73ffffffffffffffffffffffffffffffffffffffff16145b91505092915050565b8273ffffffffffffffffffffffffffffffffffffffff16610ba282610683565b73ffffffffffffffffffffffffffffffffffffffff1614610bf8576040517f08c379a0000000000000000000000000000000000000000000000000000000008152600401610bef90611477565b60405180910390fd5b600073ffffffffffffffffffffffffffffffffffffffff168273ffffffffffffffffffffffffffffffffffffffff161415610c68576040517f08c379a0000000000000000000000000000000000000000000000000000000008152600401610c5f90611497565b60405180910390fd5b610c73838383610f66565b610c7e6000826109c7565b6001600660008573ffffffffffffffffffffffffffffffffffffffff1673ffffffffffffffffffffffffffffffffffffffff1681526020019081526020016000206000828254610cce919061165a565b925050819055506001600660008473ffffffffffffffffffffffffffffffffffffffff1673ffffffffffffffffffffffffffffffffffffffff1681526020019081526020016000206000828254610d259190611604565b92505081905550816005600083815260200190815260200160002060006101000a81548173ffffffffffffffffffffffffffffffffffffffff021916908373ffffffffffffffffffffffffffffffffffffffff160217905550808273ffffffffffffffffffffffffffffffffffffffff168473ffffffffffffffffffffffffffffffffffffffff167fddf252ad1be2c89b69c2b068fc378daa952ba7f163c4a11628f55a4df523b3ef60405160405180910390a4610de4838383610f6b565b505050565b610df4838383610b82565b505050565b8173ffffffffffffffffffffffffffffffffffffffff168373ffffffffffffffffffffffffffffffffffffffff161415610e68576040517f08c379a0000000000000000000000000000000000000000000000000000000008152600401610e5f906114b7565b60405180910390fd5b80600860008573ffffffffffffffffffffffffffffffffffffffff1673ffffffffffffffffffffffffffffffffffffffff16815260200190815260200160002060008473ffffffffffffffffffffffffffffffffffffffff1673ffffffffffffffffffffffffffffffffffffffff16815260200190815260200160002060006101000a81548160ff0219169083151502179055508173ffffffffffffffffffffffffffffffffffffffff168373ffffffffffffffffffffffffffffffffffffffff167f17307eab39ab6107e8899845ad3d59bd9653f200f220920489ca2b5937696c3183604051610f59919061143a565b60405180910390a3505050565b505050565b505050565b828054610f7c90611744565b90600052602060002090601f016020900481019282610f9e5760008555610fe5565b82601f10610fb757805160ff1916838001178555610fe5565b82800160010185558215610fe5579182015b82811115610fe4578251825591602001919060010190610fc9565b5b509050610ff29190610ff6565b5090565b5b8082111561100f576000816000905550600101610ff7565b5090565b6000611026611021846115b7565b611592565b90508281526020810184848401111561103e57600080fd5b611049848285611702565b509392505050565b60008135905061106081611a97565b92915050565b60008135905061107581611aae565b92915050565b60008135905061108a81611ac5565b92915050565b600082601f8301126110a157600080fd5b81356110b1848260208601611013565b91505092915050565b6000813590506110c981611adc565b92915050565b6000602082840312156110e157600080fd5b60006110ef84828501611051565b91505092915050565b6000806040838503121561110b57600080fd5b600061111985828601611051565b925050602061112a85828601611051565b9150509250929050565b60008060006060848603121561114957600080fd5b600061115786828701611051565b935050602061116886828701611051565b9250506040611179868287016110ba565b9150509250925092565b6000806040838503121561119657600080fd5b60006111a485828601611051565b92505060206111b585828601611066565b9150509250929050565b600080604083850312156111d257600080fd5b60006111e085828601611051565b92505060206111f1858286016110ba565b9150509250929050565b60006020828403121561120d57600080fd5b600061121b8482850161107b565b91505092915050565b60006020828403121561123657600080fd5b6000611244848285016110ba565b91505092915050565b6000806040838503121561126057600080fd5b600061126e858286016110ba565b925050602083013567ffffffffffffffff81111561128b57600080fd5b61129785828601611090565b9150509250929050565b6112aa8161168e565b82525050565b6112b9816116a0565b82525050565b60006112ca826115e8565b6112d481856115f3565b93506112e4818560208601611711565b6112ed81611834565b840191505092915050565b60006113056025836115f3565b915061131082611845565b604082019050919050565b60006113286024836115f3565b915061133382611894565b604082019050919050565b600061134b6019836115f3565b9150611356826118e3565b602082019050919050565b600061136e6029836115f3565b91506113798261190c565b604082019050919050565b60006113916038836115f3565b915061139c8261195b565b604082019050919050565b60006113b46029836115f3565b91506113bf826119aa565b604082019050919050565b60006113d76021836115f3565b91506113e2826119f9565b604082019050919050565b60006113fa6031836115f3565b915061140582611a48565b604082019050919050565b611419816116f8565b82525050565b600060208201905061143460008301846112a1565b92915050565b600060208201905061144f60008301846112b0565b92915050565b6000602082019050818103600083015261146f81846112bf565b905092915050565b60006020820190508181036000830152611490816112f8565b9050919050565b600060208201905081810360008301526114b08161131b565b9050919050565b600060208201905081810360008301526114d08161133e565b9050919050565b600060208201905081810360008301526114f081611361565b9050919050565b6000602082019050818103600083015261151081611384565b9050919050565b60006020820190508181036000830152611530816113a7565b9050919050565b60006020820190508181036000830152611550816113ca565b9050919050565b60006020820190508181036000830152611570816113ed565b9050919050565b600060208201905061158c6000830184611410565b92915050565b600061159c6115ad565b90506115a88282611776565b919050565b6000604051905090565b600067ffffffffffffffff8211156115d2576115d1611805565b5b6115db82611834565b9050602081019050919050565b600081519050919050565b600082825260208201905092915050565b600061160f826116f8565b915061161a836116f8565b9250827fffffffffffffffffffffffffffffffffffffffffffffffffffffffffffffffff0382111561164f5761164e6117a7565b5b828201905092915050565b6000611665826116f8565b9150611670836116f8565b925082821015611683576116826117a7565b5b828203905092915050565b6000611699826116d8565b9050919050565b60008115159050919050565b60007fffffffff0000000000000000000000000000000000000000000000000000000082169050919050565b600073ffffffffffffffffffffffffffffffffffffffff82169050919050565b6000819050919050565b82818337600083830152505050565b60005b8381101561172f578082015181840152602081019050611714565b8381111561173e576000848401525b50505050565b6000600282049050600182168061175c57607f821691505b602082108114156117705761176f6117d6565b5b50919050565b61177f82611834565b810181811067ffffffffffffffff8211171561179e5761179d611805565b5b80604052505050565b7f4e487b7100000000000000000000000000000000000000000000000000000000600052601160045260246000fd5b7f4e487b7100000000000000000000000000000000000000000000000000000000600052602260045260246000fd5b7f4e487b7100000000000000000000000000000000000000000000000000000000600052604160045260246000fd5b6000601f19601f8301169050919050565b7f4552433732313a207472616e736665722066726f6d20696e636f72726563742060008201527f6f776e6572000000000000000000000000000000000000000000000000000000602082015250565b7f4552433732313a207472616e7366657220746f20746865207a65726f2061646460008201527f7265737300000000000000000000000000000000000000000000000000000000602082015250565b7f4552433732313a20617070726f766520746f2063616c6c657200000000000000600082015250565b7f4552433732313a2061646472657373207a65726f206973206e6f74206120766160008201527f6c6964206f776e65720000000000000000000000000000000000000000000000602082015250565b7f4552433732313a20617070726f76652063616c6c6572206973206e6f74206f7760008201527f6e6572206e6f7220617070726f76656420666f7220616c6c0000000000000000602082015250565b7f4552433732313a206f776e657220717565727920666f72206e6f6e657869737460008201527f656e7420746f6b656e0000000000000000000000000000000000000000000000602082015250565b7f4552433732313a20617070726f76616c20746f2063757272656e74206f776e6560008201527f7200000000000000000000000000000000000000000000000000000000000000602082015250565b7f4552433732313a207472616e736665722063616c6c6572206973206e6f74206f60008201527f776e6572206e6f7220617070726f766564000000000000000000000000000000602082015250565b611aa08161168e565b8114611aab57600080fd5b50565b611ab7816116a0565b8114611ac257600080fd5b50565b611ace816116ac565b8114611ad957600080fd5b50565b611ae5816116f8565b8114611af057600080fd5b5056fea2646970667358221220f27c96a7ee69cd5b821b535971ab4686d99140ed4dc2da7ef8cd1b729547e39964736f6c63430008040033",
  "linkReferences": {},
  "deployedLinkReferences": {}
}