{
  "_format": "hh-sol-artifact-1",
  "contractName": "MyToken",
  "sourceName": "contracts/collection.sol",
  "abi": [
    {
      "anonymous": false,
      "inputs": [
        {
          "indexed": true,
          "internalType": "address",
          "name": "owner",
          "type": "address"
        },
        {
          "indexed": true,
          "internalType": "address",
          "name": "approved",
          "type": "address"
        },
        {
          "indexed": true,
          "internalType": "uint256",
          "name": "tokenId",
          "type": "uint256"
        }
      ],
      "name": "Approval",
      "type": "event"
    },
    {
      "anonymous": false,
      "inputs": [
        {
          "indexed": true,
          "internalType": "address",
          "name": "owner",
          "type": "address"
        },
        {
          "indexed": true,
          "internalType": "address",
          "name": "operator",
          "type": "address"
        },
        {
          "indexed": false,
          "internalType": "bool",
          "name": "approved",
          "type": "bool"
        }
      ],
      "name": "ApprovalForAll",
      "type": "event"
    },
    {
      "anonymous": false,
      "inputs": [
        {
          "indexed": true,
          "internalType": "address",
          "name": "from",
          "type": "address"
        },
        {
          "indexed": true,
          "internalType": "address",
          "name": "to",
          "type": "address"
        },
        {
          "indexed": true,
          "internalType": "uint256",
          "name": "tokenId",
          "type": "uint256"
        }
      ],
      "name": "Transfer",
      "type": "event"
    },
    {
      "inputs": [
        {
          "internalType": "address",
          "name": "to",
          "type": "address"
        },
        {
          "internalType": "uint256",
          "name": "tokenId",
          "type": "uint256"
        }
      ],
      "name": "approve",
      "outputs": [],
      "stateMutability": "nonpayable",
      "type": "function"
    },
    {
      "inputs": [
        {
          "internalType": "address",
          "name": "owner",
          "type": "address"
        }
      ],
      "name": "balanceOf",
      "outputs": [
        {
          "internalType": "uint256",
          "name": "",
          "type": "uint256"
        }
      ],
      "stateMutability": "view",
      "type": "function"
    },
    {
      "inputs": [
        {
          "internalType": "uint256",
          "name": "tokenId",
          "type": "uint256"
        }
      ],
      "name": "getApproved",
      "outputs": [
        {
          "internalType": "address",
          "name": "",
          "type": "address"
        }
      ],
      "stateMutability": "view",
      "type": "function"
    },
    {
      "inputs": [
        {
          "internalType": "address",
          "name": "owner",
          "type": "address"
        },
        {
          "internalType": "address",
          "name": "operator",
          "type": "address"
        }
      ],
      "name": "isApprovedForAll",
      "outputs": [
        {
          "internalType": "bool",
          "name": "",
          "type": "bool"
        }
      ],
      "stateMutability": "view",
      "type": "function"
    },
    {
      "inputs": [],
      "name": "mintTicket",
      "outputs": [],
      "stateMutability": "payable",
      "type": "function"
    },
    {
      "inputs": [],
      "name": "name",
      "outputs": [
        {
          "internalType": "string",
          "name": "",
          "type": "string"
        }
      ],
      "stateMutability": "view",
      "type": "function"
    },
    {
      "inputs": [
        {
          "internalType": "uint256",
          "name": "tokenId",
          "type": "uint256"
        }
      ],
      "name": "ownerOf",
      "outputs": [
        {
          "internalType": "address",
          "name": "",
          "type": "address"
        }
      ],
      "stateMutability": "view",
      "type": "function"
    },
    {
      "inputs": [
        {
          "internalType": "address",
          "name": "from",
          "type": "address"
        },
        {
          "internalType": "address",
          "name": "to",
          "type": "address"
        },
        {
          "internalType": "uint256",
          "name": "tokenId",
          "type": "uint256"
        }
      ],
      "name": "safeTransferFrom",
      "outputs": [],
      "stateMutability": "nonpayable",
      "type": "function"
    },
    {
      "inputs": [
        {
          "internalType": "address",
          "name": "operator",
          "type": "address"
        },
        {
          "internalType": "bool",
          "name": "approved",
          "type": "bool"
        }
      ],
      "name": "setApprovalForAll",
      "outputs": [],
      "stateMutability": "nonpayable",
      "type": "function"
    },
    {
      "inputs": [
        {
          "internalType": "uint256",
          "name": "_maxTicket",
          "type": "uint256"
        }
      ],
      "name": "setMaxTicket",
      "outputs": [],
      "stateMutability": "nonpayable",
      "type": "function"
    },
    {
      "inputs": [
        {
          "internalType": "bool",
          "name": "status",
          "type": "bool"
        }
      ],
      "name": "setSaleStatus",
      "outputs": [],
      "stateMutability": "nonpayable",
      "type": "function"
    },
    {
      "inputs": [
        {
          "internalType": "uint256",
          "name": "tokenId",
          "type": "uint256"
        },
        {
          "internalType": "string",
          "name": "tokenURI_",
          "type": "string"
        }
      ],
      "name": "setTokenURI",
      "outputs": [],
      "stateMutability": "nonpayable",
      "type": "function"
    },
    {
      "inputs": [
        {
          "internalType": "bytes4",
          "name": "interfaceId",
          "type": "bytes4"
        }
      ],
      "name": "supportsInterface",
      "outputs": [
        {
          "internalType": "bool",
          "name": "",
          "type": "bool"
        }
      ],
      "stateMutability": "pure",
      "type": "function"
    },
    {
      "inputs": [],
      "name": "symbol",
      "outputs": [
        {
          "internalType": "string",
          "name": "",
          "type": "string"
        }
      ],
      "stateMutability": "view",
      "type": "function"
    },
    {
      "inputs": [
        {
          "internalType": "uint256",
          "name": "tokenId",
          "type": "uint256"
        }
      ],
      "name": "tokenURI",
      "outputs": [
        {
          "internalType": "string",
          "name": "",
          "type": "string"
        }
      ],
      "stateMutability": "view",
      "type": "function"
    },
    {
      "inputs": [
        {
          "internalType": "address",
          "name": "from",
          "type": "address"
        },
        {
          "internalType": "address",
          "name": "to",
          "type": "address"
        },
        {
          "internalType": "uint256",
          "name": "tokenId",
          "type": "uint256"
        }
      ],
      "name": "transferFrom",
      "outputs": [],
      "stateMutability": "nonpayable",
      "type": "function"
    }
  ],
  "bytecode": "0x608060405260405180602001604052806000815250600090805190602001906200002b929190620000f6565b50604051806020016040528060008152506001908051906020019062000053929190620000f6565b5060405180602001604052806000815250600290805190602001906200007b929190620000f6565b50730a0167096b6bf3c1743d725834cc8bb7361e5409600360006101000a81548173ffffffffffffffffffffffffffffffffffffffff021916908373ffffffffffffffffffffffffffffffffffffffff1602179055506005600a5567016345785d8a0000600b55348015620000ef57600080fd5b506200020b565b8280546200010490620001a6565b90600052602060002090601f01602090048101928262000128576000855562000174565b82601f106200014357805160ff191683800117855562000174565b8280016001018555821562000174579182015b828111156200017357825182559160200191906001019062000156565b5b50905062000183919062000187565b5090565b5b80821115620001a257600081600090555060010162000188565b5090565b60006002820490506001821680620001bf57607f821691505b60208210811415620001d657620001d5620001dc565b5b50919050565b7f4e487b7100000000000000000000000000000000000000000000000000000000600052602260045260246000fd5b612456806200021b6000396000f3fe6080604052600436106100f35760003560e01c80636352211e1161008a578063c87b56dd11610059578063c87b56dd14610319578063d897833e14610356578063e985e9c51461037f578063ffb24446146103bc576100f3565b80636352211e1461024b57806370a082311461028857806395d89b41146102c5578063a22cb465146102f0576100f3565b8063162094c4116100c6578063162094c4146101c657806323b872dd146101ef57806342842e0e14610218578063573c80fa14610241576100f3565b806301ffc9a7146100f857806306fdde0314610135578063081812fc14610160578063095ea7b31461019d575b600080fd5b34801561010457600080fd5b5061011f600480360381019061011a91906117bf565b6103e5565b60405161012c9190611ad0565b60405180910390f35b34801561014157600080fd5b5061014a61042f565b6040516101579190611aeb565b60405180910390f35b34801561016c57600080fd5b50610187600480360381019061018291906117e8565b6104c1565b6040516101949190611ab5565b60405180910390f35b3480156101a957600080fd5b506101c460048036038101906101bf919061175a565b61056a565b005b3480156101d257600080fd5b506101ed60048036038101906101e89190611811565b610674565b005b3480156101fb57600080fd5b50610216600480360381019061021191906116cf565b6106fa565b005b34801561022457600080fd5b5061023f600480360381019061023a91906116cf565b610753565b005b6102496107ac565b005b34801561025757600080fd5b50610272600480360381019061026d91906117e8565b610865565b60405161027f9190611ab5565b60405180910390f35b34801561029457600080fd5b506102af60048036038101906102aa919061166a565b610917565b6040516102bc9190611ccd565b60405180910390f35b3480156102d157600080fd5b506102da6109cf565b6040516102e79190611aeb565b60405180910390f35b3480156102fc57600080fd5b506103176004803603810190610312919061171e565b610a61565b005b34801561032557600080fd5b50610340600480360381019061033b91906117e8565b610a70565b60405161034d9190611aeb565b60405180910390f35b34801561036257600080fd5b5061037d60048036038101906103789190611796565b610b15565b005b34801561038b57600080fd5b506103a660048036038101906103a19190611693565b610b8c565b6040516103b39190611ad0565b60405180910390f35b3480156103c857600080fd5b506103e360048036038101906103de91906117e8565b610c20565b005b6000817bffffffffffffffffffffffffffffffffffffffffffffffffffffffff1916827bffffffffffffffffffffffffffffffffffffffffffffffffffffffff1916149050919050565b60606000805461043e90611e9a565b80601f016020809104026020016040519081016040528092919081815260200182805461046a90611e9a565b80156104b75780601f1061048c576101008083540402835291602001916104b7565b820191906000526020600020905b81548152906001019060200180831161049a57829003601f168201915b5050505050905090565b60008073ffffffffffffffffffffffffffffffffffffffff166005600084815260200190815260200160002060009054906101000a900473ffffffffffffffffffffffffffffffffffffffff1673ffffffffffffffffffffffffffffffffffffffff16141561052f57600080fd5b6007600083815260200190815260200160002060009054906101000a900473ffffffffffffffffffffffffffffffffffffffff169050919050565b600061057582610865565b90508073ffffffffffffffffffffffffffffffffffffffff168373ffffffffffffffffffffffffffffffffffffffff1614156105e6576040517f08c379a00000000000000000000000000000000000000000000000000000000081526004016105dd90611c6d565b60405180910390fd5b8073ffffffffffffffffffffffffffffffffffffffff163373ffffffffffffffffffffffffffffffffffffffff16148061062657506106258133610b8c565b5b610665576040517f08c379a000000000000000000000000000000000000000000000000000000000815260040161065c90611c0d565b60405180910390fd5b61066f8383610d16565b505050565b600360009054906101000a900473ffffffffffffffffffffffffffffffffffffffff1673ffffffffffffffffffffffffffffffffffffffff163373ffffffffffffffffffffffffffffffffffffffff16146106ce57600080fd5b806009600084815260200190815260200160002090805190602001906106f592919061150b565b505050565b6107043382610dcf565b610743576040517f08c379a000000000000000000000000000000000000000000000000000000000815260040161073a90611c8d565b60405180910390fd5b61074e838383610ed1565b505050565b61075d3382610dcf565b61079c576040517f08c379a000000000000000000000000000000000000000000000000000000000815260040161079390611c8d565b60405180910390fd5b6107a7838383611138565b505050565b60011515600c60009054906101000a900460ff161515146107cc57600080fd5b600454600a541015610813576040517f08c379a000000000000000000000000000000000000000000000000000000000815260040161080a90611b2d565b60405180910390fd5b600b543414610857576040517f08c379a000000000000000000000000000000000000000000000000000000000815260040161084e90611cad565b60405180910390fd5b61086333600454611148565b565b6000806005600084815260200190815260200160002060009054906101000a900473ffffffffffffffffffffffffffffffffffffffff169050600073ffffffffffffffffffffffffffffffffffffffff168173ffffffffffffffffffffffffffffffffffffffff16141561090e576040517f08c379a000000000000000000000000000000000000000000000000000000000815260040161090590611c2d565b60405180910390fd5b80915050919050565b60008073ffffffffffffffffffffffffffffffffffffffff168273ffffffffffffffffffffffffffffffffffffffff161415610988576040517f08c379a000000000000000000000000000000000000000000000000000000000815260040161097f90611bed565b60405180910390fd5b600660008373ffffffffffffffffffffffffffffffffffffffff1673ffffffffffffffffffffffffffffffffffffffff168152602001908152602001600020549050919050565b6060600180546109de90611e9a565b80601f0160208091040260200160405190810160405280929190818152602001828054610a0a90611e9a565b8015610a575780601f10610a2c57610100808354040283529160200191610a57565b820191906000526020600020905b815481529060010190602001808311610a3a57829003601f168201915b5050505050905090565b610a6c338383611394565b5050565b6060600960008381526020019081526020016000208054610a9090611e9a565b80601f0160208091040260200160405190810160405280929190818152602001828054610abc90611e9a565b8015610b095780601f10610ade57610100808354040283529160200191610b09565b820191906000526020600020905b815481529060010190602001808311610aec57829003601f168201915b50505050509050919050565b600360009054906101000a900473ffffffffffffffffffffffffffffffffffffffff1673ffffffffffffffffffffffffffffffffffffffff163373ffffffffffffffffffffffffffffffffffffffff1614610b6f57600080fd5b80600c60006101000a81548160ff02191690831515021790555050565b6000600860008473ffffffffffffffffffffffffffffffffffffffff1673ffffffffffffffffffffffffffffffffffffffff16815260200190815260200160002060008373ffffffffffffffffffffffffffffffffffffffff1673ffffffffffffffffffffffffffffffffffffffff16815260200190815260200160002060009054906101000a900460ff16905092915050565b600360009054906101000a900473ffffffffffffffffffffffffffffffffffffffff1673ffffffffffffffffffffffffffffffffffffffff163373ffffffffffffffffffffffffffffffffffffffff1614610c7a57600080fd5b600080600a819055506000600a541015610cc9576040517f08c379a0000000000000000000000000000000000000000000000000000000008152600401610cc090611b6d565b60405180910390fd5b808210610d0b576040517f08c379a0000000000000000000000000000000000000000000000000000000008152600401610d0290611b8d565b60405180910390fd5b81600a819055505050565b816007600083815260200190815260200160002060006101000a81548173ffffffffffffffffffffffffffffffffffffffff021916908373ffffffffffffffffffffffffffffffffffffffff160217905550808273ffffffffffffffffffffffffffffffffffffffff16610d8983610865565b73ffffffffffffffffffffffffffffffffffffffff167f8c5be1e5ebec7d5bd14f71427d1e84f3dd0314c0f7b2291e5b200ac8c7c3b92560405160405180910390a45050565b60008073ffffffffffffffffffffffffffffffffffffffff166005600084815260200190815260200160002060009054906101000a900473ffffffffffffffffffffffffffffffffffffffff1673ffffffffffffffffffffffffffffffffffffffff161415610e3d57600080fd5b6000610e4883610865565b90508073ffffffffffffffffffffffffffffffffffffffff168473ffffffffffffffffffffffffffffffffffffffff161480610e8a5750610e898185610b8c565b5b80610ec857508373ffffffffffffffffffffffffffffffffffffffff16610eb0846104c1565b73ffffffffffffffffffffffffffffffffffffffff16145b91505092915050565b8273ffffffffffffffffffffffffffffffffffffffff16610ef182610865565b73ffffffffffffffffffffffffffffffffffffffff1614610f47576040517f08c379a0000000000000000000000000000000000000000000000000000000008152600401610f3e90611b0d565b60405180910390fd5b600073ffffffffffffffffffffffffffffffffffffffff168273ffffffffffffffffffffffffffffffffffffffff161415610fb7576040517f08c379a0000000000000000000000000000000000000000000000000000000008152600401610fae90611bad565b60405180910390fd5b610fc2838383611501565b610fcd600082610d16565b6001600660008573ffffffffffffffffffffffffffffffffffffffff1673ffffffffffffffffffffffffffffffffffffffff168152602001908152602001600020600082825461101d9190611db0565b925050819055506001600660008473ffffffffffffffffffffffffffffffffffffffff1673ffffffffffffffffffffffffffffffffffffffff16815260200190815260200160002060008282546110749190611d5a565b92505081905550816005600083815260200190815260200160002060006101000a81548173ffffffffffffffffffffffffffffffffffffffff021916908373ffffffffffffffffffffffffffffffffffffffff160217905550808273ffffffffffffffffffffffffffffffffffffffff168473ffffffffffffffffffffffffffffffffffffffff167fddf252ad1be2c89b69c2b068fc378daa952ba7f163c4a11628f55a4df523b3ef60405160405180910390a4611133838383611506565b505050565b611143838383610ed1565b505050565b600073ffffffffffffffffffffffffffffffffffffffff168273ffffffffffffffffffffffffffffffffffffffff1614156111b8576040517f08c379a00000000000000000000000000000000000000000000000000000000081526004016111af90611c4d565b60405180910390fd5b600073ffffffffffffffffffffffffffffffffffffffff166005600083815260200190815260200160002060009054906101000a900473ffffffffffffffffffffffffffffffffffffffff1673ffffffffffffffffffffffffffffffffffffffff16141561125b576040517f08c379a000000000000000000000000000000000000000000000000000000000815260040161125290611b4d565b60405180910390fd5b61126760008383611501565b6001600660008473ffffffffffffffffffffffffffffffffffffffff1673ffffffffffffffffffffffffffffffffffffffff16815260200190815260200160002060008282546112b79190611d5a565b92505081905550816005600083815260200190815260200160002060006101000a81548173ffffffffffffffffffffffffffffffffffffffff021916908373ffffffffffffffffffffffffffffffffffffffff1602179055506004600081548092919061132390611efd565b9190505550808273ffffffffffffffffffffffffffffffffffffffff16600073ffffffffffffffffffffffffffffffffffffffff167fddf252ad1be2c89b69c2b068fc378daa952ba7f163c4a11628f55a4df523b3ef60405160405180910390a461139060008383611506565b5050565b8173ffffffffffffffffffffffffffffffffffffffff168373ffffffffffffffffffffffffffffffffffffffff161415611403576040517f08c379a00000000000000000000000000000000000000000000000000000000081526004016113fa90611bcd565b60405180910390fd5b80600860008573ffffffffffffffffffffffffffffffffffffffff1673ffffffffffffffffffffffffffffffffffffffff16815260200190815260200160002060008473ffffffffffffffffffffffffffffffffffffffff1673ffffffffffffffffffffffffffffffffffffffff16815260200190815260200160002060006101000a81548160ff0219169083151502179055508173ffffffffffffffffffffffffffffffffffffffff168373ffffffffffffffffffffffffffffffffffffffff167f17307eab39ab6107e8899845ad3d59bd9653f200f220920489ca2b5937696c31836040516114f49190611ad0565b60405180910390a3505050565b505050565b505050565b82805461151790611e9a565b90600052602060002090601f0160209004810192826115395760008555611580565b82601f1061155257805160ff1916838001178555611580565b82800160010185558215611580579182015b8281111561157f578251825591602001919060010190611564565b5b50905061158d9190611591565b5090565b5b808211156115aa576000816000905550600101611592565b5090565b60006115c16115bc84611d0d565b611ce8565b9050828152602081018484840111156115d957600080fd5b6115e4848285611e58565b509392505050565b6000813590506115fb816123c4565b92915050565b600081359050611610816123db565b92915050565b600081359050611625816123f2565b92915050565b600082601f83011261163c57600080fd5b813561164c8482602086016115ae565b91505092915050565b60008135905061166481612409565b92915050565b60006020828403121561167c57600080fd5b600061168a848285016115ec565b91505092915050565b600080604083850312156116a657600080fd5b60006116b4858286016115ec565b92505060206116c5858286016115ec565b9150509250929050565b6000806000606084860312156116e457600080fd5b60006116f2868287016115ec565b9350506020611703868287016115ec565b925050604061171486828701611655565b9150509250925092565b6000806040838503121561173157600080fd5b600061173f858286016115ec565b925050602061175085828601611601565b9150509250929050565b6000806040838503121561176d57600080fd5b600061177b858286016115ec565b925050602061178c85828601611655565b9150509250929050565b6000602082840312156117a857600080fd5b60006117b684828501611601565b91505092915050565b6000602082840312156117d157600080fd5b60006117df84828501611616565b91505092915050565b6000602082840312156117fa57600080fd5b600061180884828501611655565b91505092915050565b6000806040838503121561182457600080fd5b600061183285828601611655565b925050602083013567ffffffffffffffff81111561184f57600080fd5b61185b8582860161162b565b9150509250929050565b61186e81611de4565b82525050565b61187d81611df6565b82525050565b600061188e82611d3e565b6118988185611d49565b93506118a8818560208601611e67565b6118b181611fd3565b840191505092915050565b60006118c9602583611d49565b91506118d482611fe4565b604082019050919050565b60006118ec603c83611d49565b91506118f782612033565b604082019050919050565b600061190f601c83611d49565b915061191a82612082565b602082019050919050565b6000611932603883611d49565b915061193d826120ab565b604082019050919050565b6000611955603483611d49565b9150611960826120fa565b604082019050919050565b6000611978602483611d49565b915061198382612149565b604082019050919050565b600061199b601983611d49565b91506119a682612198565b602082019050919050565b60006119be602983611d49565b91506119c9826121c1565b604082019050919050565b60006119e1603883611d49565b91506119ec82612210565b604082019050919050565b6000611a04602983611d49565b9150611a0f8261225f565b604082019050919050565b6000611a27602083611d49565b9150611a32826122ae565b602082019050919050565b6000611a4a602183611d49565b9150611a55826122d7565b604082019050919050565b6000611a6d603183611d49565b9150611a7882612326565b604082019050919050565b6000611a90602383611d49565b9150611a9b82612375565b604082019050919050565b611aaf81611e4e565b82525050565b6000602082019050611aca6000830184611865565b92915050565b6000602082019050611ae56000830184611874565b92915050565b60006020820190508181036000830152611b058184611883565b905092915050565b60006020820190508181036000830152611b26816118bc565b9050919050565b60006020820190508181036000830152611b46816118df565b9050919050565b60006020820190508181036000830152611b6681611902565b9050919050565b60006020820190508181036000830152611b8681611925565b9050919050565b60006020820190508181036000830152611ba681611948565b9050919050565b60006020820190508181036000830152611bc68161196b565b9050919050565b60006020820190508181036000830152611be68161198e565b9050919050565b60006020820190508181036000830152611c06816119b1565b9050919050565b60006020820190508181036000830152611c26816119d4565b9050919050565b60006020820190508181036000830152611c46816119f7565b9050919050565b60006020820190508181036000830152611c6681611a1a565b9050919050565b60006020820190508181036000830152611c8681611a3d565b9050919050565b60006020820190508181036000830152611ca681611a60565b9050919050565b60006020820190508181036000830152611cc681611a83565b9050919050565b6000602082019050611ce26000830184611aa6565b92915050565b6000611cf2611d03565b9050611cfe8282611ecc565b919050565b6000604051905090565b600067ffffffffffffffff821115611d2857611d27611fa4565b5b611d3182611fd3565b9050602081019050919050565b600081519050919050565b600082825260208201905092915050565b6000611d6582611e4e565b9150611d7083611e4e565b9250827fffffffffffffffffffffffffffffffffffffffffffffffffffffffffffffffff03821115611da557611da4611f46565b5b828201905092915050565b6000611dbb82611e4e565b9150611dc683611e4e565b925082821015611dd957611dd8611f46565b5b828203905092915050565b6000611def82611e2e565b9050919050565b60008115159050919050565b60007fffffffff0000000000000000000000000000000000000000000000000000000082169050919050565b600073ffffffffffffffffffffffffffffffffffffffff82169050919050565b6000819050919050565b82818337600083830152505050565b60005b83811015611e85578082015181840152602081019050611e6a565b83811115611e94576000848401525b50505050565b60006002820490506001821680611eb257607f821691505b60208210811415611ec657611ec5611f75565b5b50919050565b611ed582611fd3565b810181811067ffffffffffffffff82111715611ef457611ef3611fa4565b5b80604052505050565b6000611f0882611e4e565b91507fffffffffffffffffffffffffffffffffffffffffffffffffffffffffffffffff821415611f3b57611f3a611f46565b5b600182019050919050565b7f4e487b7100000000000000000000000000000000000000000000000000000000600052601160045260246000fd5b7f4e487b7100000000000000000000000000000000000000000000000000000000600052602260045260246000fd5b7f4e487b7100000000000000000000000000000000000000000000000000000000600052604160045260246000fd5b6000601f19601f8301169050919050565b7f4552433732313a207472616e736665722066726f6d20696e636f72726563742060008201527f6f776e6572000000000000000000000000000000000000000000000000000000602082015250565b7f646576203a20596f752063616e206e6f74206d696e742062656361757365207460008201527f6865206e756d626572206f66207469636b657473206973206f76657200000000602082015250565b7f4552433732313a20746f6b656e20616c7265616479206d696e74656400000000600082015250565b7f646576203a2054686520746f74616c206e756d626572206f66207469636b657460008201527f732063616e206e6f74206265206c657373207468616e20300000000000000000602082015250565b7f646576203a2054686520746f74616c206e756d626572206f66207469636b657460008201527f732073686f756c64206e6f74206265206c657373000000000000000000000000602082015250565b7f4552433732313a207472616e7366657220746f20746865207a65726f2061646460008201527f7265737300000000000000000000000000000000000000000000000000000000602082015250565b7f4552433732313a20617070726f766520746f2063616c6c657200000000000000600082015250565b7f4552433732313a2061646472657373207a65726f206973206e6f74206120766160008201527f6c6964206f776e65720000000000000000000000000000000000000000000000602082015250565b7f4552433732313a20617070726f76652063616c6c6572206973206e6f74206f7760008201527f6e6572206e6f7220617070726f76656420666f7220616c6c0000000000000000602082015250565b7f4552433732313a206f776e657220717565727920666f72206e6f6e657869737460008201527f656e7420746f6b656e0000000000000000000000000000000000000000000000602082015250565b7f4552433732313a206d696e7420746f20746865207a65726f2061646472657373600082015250565b7f4552433732313a20617070726f76616c20746f2063757272656e74206f776e6560008201527f7200000000000000000000000000000000000000000000000000000000000000602082015250565b7f4552433732313a207472616e736665722063616c6c6572206973206e6f74206f60008201527f776e6572206e6f7220617070726f766564000000000000000000000000000000602082015250565b7f646576203a2056616c7565206973206f766572206f7220756e6465722070726960008201527f63652e0000000000000000000000000000000000000000000000000000000000602082015250565b6123cd81611de4565b81146123d857600080fd5b50565b6123e481611df6565b81146123ef57600080fd5b50565b6123fb81611e02565b811461240657600080fd5b50565b61241281611e4e565b811461241d57600080fd5b5056fea26469706673582212207420e44f7802552a419db6313f804be7f61b945903196ac6feceff62c161964864736f6c63430008040033",
  "linkReferences": {},
  "deployedLinkReferences": {}
}